:08000000380D040000000000AF
:04004C00EC060000BE
:100200003220EF00C3102000008041001040BA00EF
:100210000160EF0000000600720000003220EF00D5
:10022000A3112000008041001040BA000160EF00DF
:100230000000060062610000736500005F7300004B
:1002400070650000656400003D2500007520000019
:10025000766100006C750000653D00000000000044
:100260003220EF00C3132000008041001040BA008C
:100270000160EF0000000600646500006C61000092
:10028000795F0000746900006D6500003D25000085
:1002900075200000766100006C7500006528000084
:1002A0006D730000293D0000000000003220EF00C7
:1002B00023162000008041001040BA000160EF00CA
:1002C000000006004B5000003D2500007520000096
:1002D000766100006C750000653D000000000000C4
:1002E0003220EF00C3172000008041001040BA0008
:1002F0000160EF00000006004B4900003D250000B2
:1003000075200000766100006C7500006528000013
:10031000783000002E300000312900003D00000040
:100320003220EF00C3192000008041001040BA00C5
:100330000160EF00000006004B4400003D25000076
:1003400075200000766100006C750000653D0000BE
:1003500028780000302E0000312900000000000045
:100360003220EF00C31B2000008041001040BA0083
:100370000160EF0000000600537900007374000074
:10038000656D0000206500006E610000626C000079
:10039000656400000A0D0000000000000E02AE00BF
:1003A000FEFF37000E02F8000008F90090108000F0
:1003B0000E22A90000000600851F78007446800008
:1003C0006020E1000B003D007446800053A22F0026
:1003D0000418E1000200340054A22F007446880083
:1003E0008021EF0004002000734680008302520049
:1003F000350C8800744680006020E100090035005B
:1004000074468000B35D20000418E10002003D0046
:10041000B45D200074468800CE08F8008001F90021
:100420008621EF00844680006020E1000B003D0043
:100430008446800053A22F000418E100020034001B
:1004400054A22F00844688000400200083468000C8
:1004500083025200650C88009221EF0084468000E0
:100460006020E1000900350084468000B35D200073
:100470000418E10002003D00B45D200084468800BD
:100480008C21EF00D008F8009201F900CF0278002B
:1004900000000600851F7800C50020000300090049
:1004A000B51F7800800378008404780004F0A10070
:1004B0000400E00006003A0009F0A700020037003F
:1004C000050020000F003700050020000D00370058
:1004D000E64252000A0039000003200009F0A6009D
:1004E000000220000F22AF00FEFF370080108800BE
:1004F0008502E900FBFF3B005500200001003700AA
:10050000840278006400200005E0A00009F0A70044
:1005100005F0A00008712200110009008883D800AE
:10052000C40202000000000081037800883E200021
:10053000110009008883D800C402020000000000F6
:100540008103780048062000110009008883D80044
:10055000C40202000000000081037800A80020000F
:10056000110009008883D800C402020000000000C6
:100570000003200000C040000F22AF00FEFF370044
:100580008010880019003700060320000000E000FA
:100590000E003A0005E0A6000D0037000402E90055
:1005A0000524E100020032004200AF000000060016
:1005B0000000E00005003A0005E0A6000400370056
:1005C00005F0A600060220000100370005E0A100AA
:1005D00000404300811F78000F22AF00FEFF37006C
:1005E00080108800CF007800000006002501200060
:1005F00003000900CF127800CF0278000000060047
:10060000851F7800C500200003000900B51F780091
:100610000202B80003F0A600020037000383B9000D
:10062000010037000303B8004200A900850243001F
:1006300060844B0001F0A60002003700028BB90075
:1006400001003700020BB80085024B0008844B0004
:100650000980B000038BB90008044B0087834C006D
:100660008701780008017800850078000400780090
:100670002501200003000900CF127800CF02780086
:1006800000000600851F7800861F7800871F78000D
:10069000E828EF00E428EF00A40020003447880099
:1006A000E028EF00E228EF00DE08E20003003A0055
:1006B0000000200001002000DF00370040478000DC
:1006C000E828EC008002780005007800DE08B4001D
:1006D00054478000004290005447880054478000EF
:1006E000D4C2B2000B003A00140020002447880056
:1006F00040478000E828EC00800278000500780080
:10070000DE08B4005447800000429000544788003F
:100710000B00370054478000B4C2B20008003A0012
:1007200040478000E828EC0080027800050078004F
:10073000DE08B4005447800000429000544788000F
:100740005447800003032000041CE100AA003E007F
:100750005447800093032000041CE100A6003900E8
:100760005447800004C3B20015003A00404780009F
:10077000DE08B4001042780084C7B20005003200E1
:1007800040478000DE08B4001042780084C5B20003
:100790000B003A000401200034478800E828EC00F0
:1007A00040478000E828EC008002780005007800CF
:1007B000DE08B4005447800000429000544788008F
:1007C000344780006A20E10024003A00544780004A
:1007D00003032000041CE1001F003E00544780007A
:1007E00093032000041CE1001B003900A00020003E
:1007F0000100200002478000134780000003020030
:100800000000000080027800010378005447800057
:100810000443B1000440780000E0B7000080FB0012
:1008200005004000004788000400200006004A0040
:100830001047880040478000E828EC0080027800DC
:1008400005007800DE08B4005447800000429000A4
:1008500054478800DDFF37006700370034478000C9
:100860007020E10064003A00544780001306200025
:10087000041CE10007003E0054478000A30720004D
:10088000041CE10003003900EAC8BF00F04DB200CB
:1008900001003700EAC8BF00EAE8B700544780000B
:1008A00003032000041CE10005003E0054478000C3
:1008B00093032000041CE100010039000800370008
:1008C0005447800013042000041CE1004A003E004D
:1008D0005447800063042000041CE10046003900F6
:1008E0005447800003032000041CE10018003E0070
:1008F0005447800093032000041CE10014003900D9
:100900004400200005478000164780000402E800EC
:100910000402E900030032008502D0000683D20001
:10092000FBFF3700544780000443B10004407800C7
:1009300000E0B7000080FB00050040000047880091
:100940000400200006004A00104788001400370009
:100950004400200005478000164780000402E8009C
:100960000402E900030032008502D0000683D200B1
:10097000FBFF3700544780001444B1000440780066
:1009800000E0B7006A4040000080FB000500400026
:10099000004788000400200006004A001047880035
:1009A00040478000E828EC008002780005007800CD
:1009B000DE08B4005447800000429000544788008D
:1009C0005447800013062000041CE10007003E008D
:1009D00054478000A3072000041CE10003003900F5
:1009E000EAC8BF00F04DB20001003700EAC8BF00FE
:1009F000EAE8B700A9FF3700344780006A20E10029
:100A00000B003A00244780006120E10008003A0012
:100A100004002000034780000300520000478800C4
:100A2000040020001347800003005A00104788008C
:100A30000047800011478000CF0378004F03780003
:100A4000CF02780000000600851F7800861F78001E
:100A5000D428EF0084862000A346800084824100D1
:100A6000467F8000CE01020000000000467F880023
:100A7000804A7800D428EC00A4468000E1025200AD
:100A80008486200004804200104278006D24E1003A
:100A9000F0FF3A0084862000F446880042030200FA
:100AA0000000000020438800954680002443800019
:100AB00084029800D0C0B3000F22AF00FEFF3700C1
:100AC00010E2B7001162EF004F037800CF02780008
:100AD00000000600000178008101780001407800E4
:100AE0000080FD0000F0A0008180D2000180FD00A8
:100AF0008180FB00E40820008140520006003200A3
:100B00000000E000040032004200A9000080D30091
:100B10008100E900FAFF3A0003F0A6000200370066
:100B20000000EA000000370000000600851F780082
:100B3000861F7800E10820000600A10000F0A60052
:100B4000030037000600A0000000EA0000003700A4
:100B50000000E0001400320000F0A700040037009D
:100B60004200A9000080D2008100E900FAFF3700AE
:100B70000180FD004200A9008180D30000F0A100A7
:100B80000080FD00814068000040B2000600A70020
:100B900001F0A00007003700014078000170A000BC
:100BA0000140B200030037000000EB008000EB00C2
:100BB000000037004F037800CF02780000000600E5
:100BC000851F7800861F7800D628EF0084862000D5
:100BD000B346800084824100467F8000CE0102003F
:100BE00000000000467F8800804A7800D628EC008C
:100BF000B4468000E1025200848620000480420056
:100C0000104278006D24E100F0FF3A008486200055
:100C1000F4468800420302000000000020438800E0
:100C2000A5468000204380009605020000000000D9
:100C300004002000B41A7800B41A7800D0C0B300C1
:100C40000F22AF00FEFF370010E2B7001162EF0085
:100C50004F037800CF02780000000600851F78005F
:100C6000C500200004000900B51F780000027800CC
:100C70008102780083037800020378004200A90013
:100C80004220A9008180D2000180FD00F10FB20056
:100C90000100E000480032004200A9004220A90003
:100CA0008381D2000380FD00F30FB2000300E00057
:100CB000410032000080FB0001C04100040031000F
:100CC000F007B1003C0032003B0039000200370061
:100CD0001048B0003800310007856A004200A900C2
:100CE0004220A900F50FB2000570A0004200A90043
:100CF000F70FB2000770A0000621B800062CB8005C
:100D000083014C0089007800043CB80083014C004A
:100D100081804C00072CB80081004C000000E800E6
:100D20000100E0004220AF0001003700030037005F
:100D30000300E0004220AF000500370001F0A700EB
:100D4000030037008381D2008180D2000000E900D7
:100D5000010178004200A9000370A60009003700D5
:100D600007F02F00878161000310B0006001490087
:100D70000200E00003003A000300E00001003A0036
:100D80000000E8000080FD004200A9004220A90008
:100D90008080D3000AF0A70001F0A00002F0A100BB
:100DA0000280FD00814069000380FD00034178005E
:100DB000020078000300370000002000010020003E
:100DC000000037004501200004000900CF12780020
:100DD000CF027800000006004200F8003600F8005C
:100DE000801F7800200020000C000900B01F780050
:100DF0001300200002002000C18C200002007800B7
:100E0000831F78000001020000000000CF0178007D
:100E1000805878000201E8008301E9004220AE001A
:100E2000F6FF3700CE01020000000000CCE8B7005A
:100E30006446800024C7B20007003A006208E2005E
:100E4000020032000040EB000100370010C0B30088
:100E500062E8B7006368EF006446800034C6B20001
:100E6000CB003A00CE28EF00D028EF00DC010200D2
:100E70000000000001002000010078000E010200C7
:100E8000000000008100E800811F78000F22AF0001
:100E9000FEFF370080108800CF007800A0002000FF
:100EA0000008E600F4FF3700004280000400200044
:100EB0004A02020000000000D1002000010078007A
:100EC0000E010200000000008100E800811F780090
:100ED0000F22AF00FEFF370080108800CF0078009F
:100EE000300120000008E600F4FF370004842000F1
:100EF0009446880024050200000000000100200044
:100F00000100780030010200000000008100E800CC
:100F1000811F78000F22AF00FEFF3700801088008D
:100F2000CF007800A00020000008E600F4FF3700A2
:100F300030438000040020004A020200000000004C
:100F4000D100200001007800300102000000000004
:100F50008100E800811F78000F22AF00FEFF3700FC
:100F600080108800CF007800700120000008E600A3
:100F7000F4FF3700648620009446880024050200B0
:100F800000000000D0428000E14280006A050200BB
:100F900000000000800278000F22AF00FEFF370043
:100FA000B4042000841088000F22AF00FEFF370039
:100FB00004052000841088000F22AF00FEFF3700D8
:100FC000D40320008410880005007800040020006D
:100FD0004A020200000000005100200001007800D9
:100FE00056010200000000008100E800811F780027
:100FF0000F22AF00FEFF370080108800CF0078007E
:10100000B00020000008E600F4FF3700A4852000AF
:10101000A4468800E005020000000000F0428000C5
:10102000014380006A050200000000008002780091
:101030000F22AF00FEFF3700B404200084108800A8
:101040000F22AF00FEFF37009404200084108800B8
:101050000F22AF00FEFF3700D40320008410880069
:1010600005007800040020004A0202000000000091
:101070005100200001007800700102000000000013
:101080008100E800811F78000F22AF00FEFF3700CB
:1010900080108800CF007800200120000008E600C2
:1010A000F4FF3700E4852000A4468800E005020034
:1010B00000000000F042800001438000A2702D007B
:1010C00033C223002E06020000000000F042880018
:1010D00001438800B0428000C14280006A050200DE
:1010E00000000000800278000F22AF00FEFF3700F2
:1010F000B4042000841088000F22AF00FEFF3700E8
:1011000044042000841088000F22AF00FEFF370047
:10111000D40320008410880005007800040020001B
:101120004A02020000000000510020000100780087
:1011300090010200000000008100E800811F78009B
:101140000F22AF00FEFF370080108800CF0078002C
:10115000100120000008E600F4FF3700648520003D
:10116000A4468800E005020000000000B0428000B4
:10117000C1428000D2CC2C00C3DC23002E0602002A
:1011800000000000B0428800C14288006228EF00E1
:10119000D2A2A900D6A2AA008520A900A001200001
:1011A0000C0009004F1078004F0078003600F9005D
:1011B0004200F900004006000400270044158800A2
:1011C000A222EF000408200024158800040E280045
:1011D0000415880000000600E4002000240C8800AC
:1011E00064002000540C8800E4002000840C880077
:1011F000E4002000B40C88001021EF00B45D200052
:101200006408880004002A00840888001221EF0086
:10121000B45D20007408880004002A009408880047
:101220008021EF008621EF008C21EF009221EF005A
:10123000000006000000E0004220AF00060037007A
:101240002133090000000000FF3F090000000000FA
:101250000000E900F7FF370000000600851F780056
:101260009400200034158800044580006402420088
:101270000400780080027800A002A900A022A80043
:10128000A002AE00FEFF3700041480008402980024
:10129000910009000000000074002000341588004F
:1012A0000445800066024200040078008002780055
:1012B000A002A900A022A800A002AE00FEFF3700F5
:1012C00004148000840298009100090000000000CE
:1012D0005400200034158800044580006802420054
:1012E0000400780080027800A002A900A022A800D3
:1012F000A002AE00FEFF37000414800084029800B4
:10130000910009000000000034002000341588001E
:10131000044580006A0242000400780080027800E0
:10132000A002A900A022A800A002AE00FEFF370084
:10133000041480008402980091000900000000005D
:101340001400200034158800044580006C0242001F
:101350000400780080027800A002A900A022A80062
:10136000A002AE00FEFF3700041480008402980043
:101370009100090000000000A622EF000445800053
:101380006E0242000400780080027800A002A900EA
:10139000A022A800A002AE00FEFF370004148000C7
:1013A0008402980091000900000000002400200041
:1013B0003415880004458000700242000400780063
:1013C00080027800A002A900A022A800A002AE001E
:1013D000FEFF370004148000840298009100090089
:1013E00000000000440020003415880004458000FF
:1013F000720242000400780080027800A002A90076
:10140000A022A800A002AE00FEFF37000414800056
:101410008402980091000900000000006400200090
:1014200034158800044580007402420004007800EE
:1014300080027800A002A900A022A800A002AE00AD
:10144000FEFF370004148000840298009100090018
:10145000000000008400200034158800044580004E
:10146000760242000400780080027800A002A90001
:10147000A022A800A002AE00FEFF370004148000E6
:10148000840298009100090000000000A4002000E0
:10149000341588000445800078024200040078007A
:1014A00080027800A002A900A022A800A002AE003D
:1014B000FEFF3700041480008402980091000900A8
:1014C00000000000CF02780000000600851F7800B1
:1014D000AA28EF00A608F800AA08F90050458000E5
:1014E000444580000020E100200035005445800084
:1014F0006220B8000445800004004000900278009B
:10150000244580000520E10007003D00544580008F
:101510006220B8001445800004004000800278007A
:101520000400200084029800544580006220B80026
:1015300004458000040040009002780024458000AB
:101540000520E10007003500544580006220B80006
:101550001445800004004000800278001400200040
:1015600084029800AA28EC00DCFF3700CF02780044
:1015700000000600851F7800A828EF00AA28EF00C9
:10158000AC28EF00AE28EF00B028EF00A208F8006A
:10159000A808F90040458000244580000020E100B3
:1015A00022003500444580006220B80004458000D8
:1015B00004004000900278006128E10009003A0030
:1015C00044458000610242008402780005027800F0
:1015D0006220B800B028B400744580006102420067
:1015E00074458800444580006220B80004458000AE
:1015F00004004000900278000500E00009003A0075
:1016000044458000610242008402780005027800AF
:101610006220B800AC28B40054458000610242004A
:1016200054458800A828EC00DAFF37007445800094
:101630006B20E10018003200544580006B20E1006F
:101640001500320070458000544580000020E10004
:1016500006003400354580008445800073458000D5
:10166000110009000302D800800A7800504580006C
:10167000744580000020E1000600340035458000FC
:101680006445800053458000110009000302D80022
:10169000800A78000300370035458000F4FF2F00F2
:1016A00084029800CF027800000006000445800004
:1016B0007020E10007003D00044580006020E1004B
:1016C00004003500C782A900CB82A900C7C2A900C7
:1016D000CBC2A800044580007020E1000400340063
:1016E000C782A900CB82A800C7C2A900CBC2A900AB
:1016F000044580007020E10004003A00C782A90080
:10170000CB82A900C7C2A900CBC2A9000000060075
:10171000851F7800C500200003000900B51F780070
:101720008004EB00080028004300AF0083016C0038
:10173000010578008A856900010378008303780039
:10174000030678004220A9004200A9000683D200C7
:101750000680FD00F60FB2000600E000A100320096
:101760004220A9004200A9008783D2000780FD0023
:10177000F70FB2000700E0009F0032004220A900EE
:101780004200A9000638E1009C003200A3003300AB
:101790000900A1000910A000068453000703780087
:1017A000F10FB2000170A000F30FB2000370A000AF
:1017B000870220000838E100110033004220A90010
:1017C0004200A9008180D3000080D3000804E90012
:1017D000FAFF3A000D003700870220000838E100C8
:1017E000090033004220A9004200A9008381D300F0
:1017F0000281D3000804E900FAFF3A000F00370025
:101800000200780083007800430037000BF0A60048
:10181000110037000940A7008C0578000000EA009D
:101820000200320081C0EA00010037008100EA00B6
:101830000940A7002B003700070037000BF0A60077
:10184000050037000201EA000200320083C1EA000D
:10185000010037008301EA00F50FB2004220A90021
:101860004200A9000200400083C048004200AF00CF
:101870000930A0000900A700090037000910A700DF
:10188000010037000B0037000BF0A70015003700F0
:101890000930A700290037000960A0001E003700AA
:1018A0000BF0A7000F0037000930A7002300370016
:1018B000190037000920A1000BF0A7000400370031
:1018C0008A0578000930A7001C0037003600370071
:1018D0000940A00001C8B2000170A700CDFF370089
:1018E0008A057800F10FB200810370000A0032000F
:1018F0000170A700080037004220A9004200A9009B
:101900000080D2008180D2000603E9004220AF00AF
:1019100031003700F6FF37000900A7008A0578007C
:101920000910A7008C0578000950A6001A0037009E
:101930000AF0A7000080A0001B0037004200A800AA
:1019400081C0D3000080D3004200AF000950A00046
:101950000603E800200032000950A6000800370006
:101960000000E80006003A008140E80004003A0068
:1019700081C0D3000080D3000603E80016003200C7
:101980000900A7008A0578000910A7008C057800D7
:101990004220AF00100037000960A7008A057800D8
:1019A0000970A7008C057800010170002300320047
:1019B0000170A1000680FD004220A9004200A9009C
:1019C0000683D30081006B0001F0A0000BF0A6009D
:1019D00001F0A100190037000000200001002000E4
:1019E000160037000AF0A70083016C00020078009F
:1019F000830078001100370010003700F30FB200A9
:101A00000370A000F10FB2000170A0000BF0A7005E
:101A10000370A1000920A00088FF370007045300CD
:101A2000F10FB2000170A000F30FB2000370A0002C
:101A30000910A1000900A00067FF37002501200060
:101A400003000900CF127800CF02780000000600E2
:101A50000000E0004220AF0004003700160009003B
:101A6000000000000000E900F9FF37000000060058
:101A700081E0A800040028006410880004402000D1
:101A800074108800F4002000A4108800A42D200009
:101A900004418800044B2000044288005228EF00D3
:101AA0005428EF0004002800B44288004445240074
:101AB000C44288005A28EF00442B2400E4428800E6
:101AC0005E28EF006028EF00F40F20001443880028
:101AD0006428EF00845E230034438800A8A2EF004E
:101AE0000FF82000F0FF200020A0B7000000000049
:101AF0000028EF009A28EF00010020000100780084
:101B0000B0010200000000008100E800811F7800A1
:101B10000F22AF00FEFF370080108800CF00780052
:101B2000F00020000008E600F4FF3700DC080200A7
:101B300000000000B45D200004458800EC080200AD
:101B4000000000008D20A8004200F80042E0EF00F5
:101B5000CE28EF00D028EF00DC01020000000000DA
:101B60004200F900D502AF0006003700D2A2A9005A
:101B7000D6A2AA00A00F20001A090200000000004F
:101B8000F8FF3700007D20001A0902000000000065
:101B90006208E20007003A006208E2000200320038
:101BA0000040EB000100370010C0B30062E8B7004E
:101BB0006368EF006208E20094003200D2A2A9003C
:101BC000D6A2AA0024802000044588002E09020025
:101BD00000000000A628EF00E40020004445880033
:101BE00024802000044588002482200014458800B9
:101BF0002008F800A408F900660A020000000000AE
:101C00002400200014458800C400200024458800DA
:101C10002482200004458800848420003445880004
:101C2000BA0A02000000000044428000F3FF2F00C7
:101C30000418E10002003A004608F8004808F900DC
:101C40004808F800A008F900560B02000000000048
:101C50004808F8004608F9000401200043428000CB
:101C600003005200604288006442800053428000BA
:101C7000030052007042880064428000A3002000EC
:101C8000110009000302D8004200F80042E0EF0012
:101C900096050200000000004200F9004300A90080
:101CA000000178008101780090428000A14280000C
:101CB000880B02000000000090428800A1428800CA
:101CC000654280004200F80042E0EF000500780025
:101CD00096050200000000004200F9004200F800F2
:101CE00042E0EF00D2428000E34280002E06020074
:101CF000000000004200F900800278000103780033
:101D0000774280004200F80042E0EF0007007800D0
:101D100096050200000000004200F9004200F800B1
:101D200042E0EF00B2428000C34280002E06020073
:101D3000000000004200F9004300A9000001780003
:101D4000810178000500780086007800880B020089
:101D50000000000080027800010378004200F800D3
:101D600042E0EF0090428000A1428000F2428000F9
:101D7000034380002E060200000000004200F9002C
:101D80004300A90000017800810178000500780077
:101D900086007800880B0200000000004200F80076
:101DA00042E0EF006A050200000000004200F90076
:101DB000804288004C08F8004A08F900044280007C
:101DC00083428000030052001042880000428000DD
:101DD0005008B400204288004200F80042E0EF00C2
:101DE0004208F800CE08F9004408F800D008F900CD
:101DF000DC010200000000004200F90030438000D6
:101E0000280D0200000000006AFF37004EFF370077
:041E10000040FE0090
:0200000401F009
:1000000003C700003F000000338700000F310000ED
:0C0010000F3300000700000003C00000D8
:00000001FF
;DSPIC30F5015
;CRC=EEF6  CREATED="07-Nov-15 15:27"
